:020000040800F2
:10000000005000202D1F0008F5080008F708000820
:10001000F9080008FB080008FD08000800000000BF
:10002000000000000000000000000000FF080008C1
:100030000109000800000000030900080509000884
:10004000751F0008751F0008751F0008751F000840
:10005000751F0008751F0008751F0008751F000830
:10006000751F0008751F0008751F0008751F000820
:10007000751F0008751F0008751F0008751F000810
:10008000751F0008751F0008751F0008751F000800
:10009000751F0008751F0008751F0008751F0008F0
:1000A000751F00080D090008751F0008751F00085E
:1000B000751F0008751F0008751F0008751F0008D0
:1000C000751F0008751F0008751F0008751F0008C0
:1000D000751F00081D090008751F0008751F00081E
:1000E000751F0008751F0008751F0008000000003C
:1000F0000000000000000000000000000000000000
:0C01000000000000000000005FF808F1A3
:10010C000348044B834202D0034B03B1184770479A
:10011C001C0000201C000020000000000548064BBD
:10012C001B1AD90F01EBA301491002D0034B03B1E9
:10013C00184770471C0000201C0000200000000025
:10014C0010B5064C237843B9FFF7DAFF044B13B113
:10015C000448AFF300800123237010BD1C00002065
:10016C0000000000781F000808B5044B1BB10449BF
:10017C000448AFF30080BDE80840CFE70000000062
:10018C0020000020781F000870B500260C4D0D4C87
:10019C00641BA410A64209D101F0E8FE00260A4D0A
:1001AC000A4C641BA410A64205D170BD55F8043B43
:1001BC0098470136EEE755F8043B98470136F2E7CD
:1001CC00BC1F0008BC1F0008BC1F0008C01F000893
:1001DC0003460244934200D1704703F8011BF9E730
:1001EC00104B1B78B3B10F4B00221A700E4A1378C8
:1001FC000133DBB21370032B0DD00C4A137801338F
:10020C00DBB213704B2B05D9134600221A70084B26
:10021C0001221A707047134600221A70054B0122F6
:10022C001A70EAE7940000204600002047000020E6
:10023C00960000209500002000F07F00014BD86054
:10024C00704700BF0008014008B5114B1B78A3B1E3
:10025C000F4B00221A700F4B996801F001010E4AE6
:10026C0013785B00DBB2137003F00E0313700B43B7
:10027C0013700C2B02D0032B05D008BD01210748AD
:10028C0000F0B8FAF9E70221044800F0B3FAF4E7F9
:10029C0095000020000C0140970000205000002029
:1002AC0008B5174B5A781B789A4220D0144B13443C
:1002BC009B78022B0AD0032B1AD0124A12785AB10F
:1002CC0011490A68501C0860137005E00D4B01229F
:1002DC001A700D4B0D4A1A6009494B7801335A427A
:1002EC0003F03F0302F03F0258BF53424B7008BD6E
:1002FC00044B00221A700321054800F07BFAEBE74F
:10030C00A4000020920000209C0000203C00002053
:10031C005000002008B5214B1878597893F802C08A
:10032C0080EA01028CEA0202DB78934209D11C4B71
:10033C001B78984205D1F12904D0F2290FD0F42969
:10034C0012D008BDACF13003164A1360164AD05CCB
:10035C00FFF772FF0521154800F04CFAF1E7042174
:10036C00124800F047FAECE7BCF1310F07D0BCF1B2
:10037C00320F0BD006210D4800F03CFAE1E70C4B94
:10038C0000221A700B4B09221A70F3E7084B0A2251
:10039C001A70084B0F221A70ECE700BF3C000020CB
:1003AC0038000020480000200000002050000020F1
:1003BC00990000209800002038B50F4C02232370C0
:1003CC006278A178E3784A40534023710323637128
:1003DC000A4D01224FF48071284601F0A1F90A233D
:1003EC0006222146064801F072FB00224FF4807170
:1003FC00284601F095F938BD400000200008014066
:10040C003401002008B5534B1A785B789A421DD101
:10041C00514B1B7803B3012B48D0504B1B780BB3BB
:10042C004F4B1B78F3B14E4B00221A704D4B1A7880
:10043C004D4B1B689A4200F38B804C4B1B784A4AFD
:10044C0013604B4AD05CFFF7F7FE0BE0414800F01D
:10045C00DEF9484B1870DBE7464B1B78032B02D0B8
:10046C00062B06D008BDFFF755FF424B00221A7031
:10047C00F8E7414A414B591C1160991C11604048E6
:10048C00017859703F49096809780170D81C1060CF
:10049C00F4209870181D1060D970FFF78DFF354B44
:1004AC0000221A702C4B01221A70DBE7314B1B789F
:1004BC00013B042BB1D8DFE803F0030E141A34000F
:1004CC000122274B1A7000232F490B7023490A7005
:1004DC00284A1370A1E70023204A1370254A137091
:1004EC009BE7FFF717FF234B00221A7095E7224A70
:1004FC00224B591C1160991C1160214909785970C3
:10050C00D91C1160F221997017490978181D1060D7
:10051C0001F13002DA70FFF74FFF164B00221A7010
:10052C007BE7154A154B591C1160991C1160144935
:10053C0009785970D91C1160F1219970191D11603D
:10054C003022DA70FFF738FF0A4B00221A7064E78A
:10055C00013374E750000020E700002093000020D6
:10056C0096000020980000204800002099000020F0
:10057C00000000204C000020A000002040000020C3
:10058C0038000020E800002047000020034B834285
:10059C0000D07047024B01221A70FAE7EC000020E1
:1005AC0094000020074B834200D0704710B5064CD6
:1005BC002178064800F01EF901222146014801F07D
:1005CC0092FC10BD34010020E6000020A4000020A5
:1005DC0072B6FEE700B591B02822002106A8FFF7FD
:1005EC00F7FD0023019302930393049305930122D7
:1005FC0006924FF4803307930A9202220D920E93C7
:10060C0006A800F05FFC88B90F2301930223029324
:10061C00802303934FF4806304930021059101A878
:10062C0000F090FE20B911B05DF804FBFFF7D0FF8D
:10063C00FFF7CEFF08B500F0F7FBFFF7CBFF00F09C
:10064C003BF800F07FF800F0F1F8124800F0B8F930
:10065C00114BFF221A70114B114A1A60114B0022D8
:10066C001A7041F2883000F003FC01220E490F4849
:10067C0001F039FC0E4B10221A600E4B187CFFF760
:10068C00DBFDFFF7ADFDFFF7DFFDFFF709FEFFF721
:10069C00B9FEF6E7EC00002038000020E80000204E
:1006AC00E8F7FF1FE7000020E600002034010020DF
:1006BC00480000200000002070B588B0002404948D
:1006CC000594069407941C4B9A6942F020029A6197
:1006DC009A6902F020020192019A9A6942F004028E
:1006EC009A619A6902F004020292029A9A6942F0A3
:1006FC0008029A619B6903F008030393039B0F4E56
:10070C00224640F27F11304601F00AF840F27F1386
:10071C0004930125059506940223079304A93046FA
:10072C0000F0ECFE04950594069504A9044800F02D
:10073C00E5FE08B070BD00BF00100240000801408B
:10074C00000C014000B587B000230293039304937F
:10075C000593009301931548154A02606322426089
:10076C00836040F21F32C26003614361836100F019
:10077C0057FA90B94FF48053029302A90B4800F03A
:10078C0087FA68B90023009301936946074800F083
:10079C00EDFA40B907B05DF804FBFFF719FFE9E784
:1007AC00FFF716FFEEE7FFF713FFF3E7EC0000206F
:1007BC00002C014002680E4B9A4200D0704700B5E5
:1007CC0083B003F564439A6942F400629A619B69B1
:1007DC0003F400630193019B00221146192001F0E0
:1007EC0025F8192001F05AF803B05DF804FB00BF9E
:1007FC00002C01400378C218917001335A4203F067
:10080C003F0302F03F0258BF534203707047024649
:10081C004378C11888780133594203F03F0301F043
:10082C003F0158BF4B4253707047000008B50A484F
:10083C000A4B03604FF49643436000238360C3600C
:10084C0003610C2242618361C36101F011F900B9AB
:10085C0008BDFFF7BDFEFBE7340100200038014066
:10086C0030B587B000230293039304930593026879
:10087C001B4B9A4201D007B030BD03F558439A691F
:10088C0042F480429A619A6902F480420092009A82
:10089C009A6942F004029A619B6903F00403019384
:1008AC00019B4FF4007302930223039303230593DC
:1008BC000C4D02A9284600F021FE4FF480630293F0
:1008CC0000240394049402A9284600F017FE224643
:1008DC002146252000F0AAFF252000F0DFFFCAE703
:1008EC000038014000080140FEE7FEE7FEE7FEE7A6
:1008FC00FEE770477047704708B500F0A7FA08BDCF
:10090C0008B5024800F094F808BD00BFEC000020C8
:10091C0008B5024801F0CAF908BD00BF3401002037
:10092C0082B00E4B9A6942F001029A619A6902F008
:10093C0001020092009ADA6942F08052DA61DB69B6
:10094C0003F080530193019B054A536823F0E06345
:10095C0043F00073536002B0704700BF00100240B8
:10096C000000014010B4036A046A24F0010404621C
:10097C00846924F0F00C4CEA021223F00A030B43B6
:10098C008261036210BC704710B4036A23F0100339
:10099C0003628469036A24F4704C4CEA023223F03B
:1009AC00A00343EA01138261036210BC70478368A1
:1009BC0023F070030B4343F0070383607047000080
:1009CC0090F83D30DBB2012B27D1022380F83D306B
:1009DC000268D36843F00103D3600368114A934261
:1009EC0010D0B3F1804F0DD0A2F59432934209D0C0
:1009FC0002F58062934205D01A6842F001021A6037
:100A0C00002070479A6802F00702062A07D01A687D
:100A1C0042F001021A60002070470120704700204C
:100A2C00704700BF002C01407047704770477047FB
:100A3C0010B5044603681A6912F0020F11D0DA6877
:100A4C0012F0020F0DD06FF002021A61012303772E
:100A5C0003689B6913F0030F70D0FFF7E6FF0023C8
:100A6C00237723681A6912F0040F12D0DA6812F097
:100A7C00040F0ED06FF004021A610223237723684F
:100A8C009B6913F4407F5FD02046FFF7CEFF002315
:100A9C00237723681A6912F0080F12D0DA6812F063
:100AAC00080F0ED06FF008021A6104232377236815
:100ABC00DB6913F0030F4ED02046FFF7B6FF00237F
:100ACC00237723681A6912F0100F12D0DA6812F02B
:100ADC00100F0ED06FF010021A61082323772368D1
:100AEC00DB6913F4407F3DD02046FFF79EFF0023C7
:100AFC00237723681A6912F0010F03D0DA6812F019
:100B0C00010F36D123681A6912F0800F03D0DA680E
:100B1C0012F0800F34D123681A6912F0400F03D001
:100B2C00DA6812F0400F32D123681A6912F0200FE4
:100B3C0003D0DA6812F0200F30D110BDFFF774FF2C
:100B4C002046FFF773FF8AE72046FFF76DFF20462C
:100B5C00FFF76CFF9BE72046FFF766FF2046FFF789
:100B6C0065FFACE72046FFF75FFF2046FFF75EFF0F
:100B7C00BDE76FF001021A612046FFF707FDC1E7E0
:100B8C006FF080021A61204600F027F9C3E76FF07E
:100B9C0040021A612046FFF74AFFC5E76FF02002BA
:100BAC001A61204600F018F9C7E7000003681B4AD9
:100BBC0090420AD0B0F1804F07D0A2F59432904207
:100BCC0003D002F58062904203D123F070034A688F
:100BDC001343124A90420AD0B0F1804F07D0A2F5CD
:100BEC009432904203D002F58062904203D123F4F8
:100BFC004073CA68134323F080034A6913430360AC
:100C0C008B68C3620B688362044B984202D0012349
:100C1C00436170470B690363F9E700BF002C014087
:100C2C0040B310B5044690F83D30F3B1022384F87C
:100C3C003D30214651F8040BFFF7B8FF012384F82F
:100C4C00463084F83E3084F83F3084F8403084F8E5
:100C5C00413084F8423084F8433084F8443084F8CE
:100C6C00453084F83D30002010BD80F83C30FFF753
:100C7C00A1FDDBE70120704710B4846824F47F4C9D
:100C8C0042EA03220A4342EA0C02826010BC70471B
:100C9C0090F83C30012B66D010B50446012380F847
:100CAC003C30022380F83D300268936823F47F4384
:100CBC0023F0770393600B68602B40D022D8402B35
:100CCC0047D00BD9502B0ED1CA6849680068FFF782
:100CDC0049FE50212068FFF76AFE04E0202B0CD05F
:100CEC0008D9302B09D0012384F83D30002084F83A
:100CFC003C0010BD0BB1102BF5D119462068FFF745
:100D0C0056FEF0E7702B0ED0B3F5005FEBD1CB683D
:100D1C004A6889680068FFF7AFFF2268936843F45C
:100D2C0080439360DFE7CB684A6889680068FFF707
:100D3C00A3FF2268936843F077039360D3E7CA68F4
:100D4C0049680068FFF720FE60212068FFF72FFE3E
:100D5C00C9E7CA6849680068FFF704FE40212068AB
:100D6C00FFF725FEBFE702207047000090F83C20FB
:100D7C00012A2CD010B40346012280F83C20022218
:100D8C0080F83D2002685068946820F0700C086868
:100D9C0040EA0C0050601A680E4882420AD0B2F148
:100DAC00804F07D0A0F59430824203D000F58060CC
:100DBC00824204D124F080044968214391600122CD
:100DCC0083F83D20002083F83C0010BC70470220C3
:100DDC00704700BF002C01407047704710B50446A7
:100DEC000E4B1A784FF47A73B3FBF2F30C4A10687B
:100DFC00B0FBF3F000F060FD68B90F2C01D90120B5
:100E0C000AE0002221464FF0FF3000F00FFD054BA9
:100E1C001C60002000E0012010BD00BF110000206C
:100E2C00180000201400002008B5074A136843F08E
:100E3C0010031360032000F0E7FC0F20FFF7CEFF38
:100E4C00FFF76EFD002008BD00200240034A116828
:100E5C00034B1B780B441360704700BF78010020D4
:100E6C0011000020014B1868704700BF780100206A
:100E7C0038B50446FFF7F6FF0546B4F1FF3F02D044
:100E8C00044B1B781C44FFF7EDFF401BA042FAD328
:100E9C0038BD00BF1100002082B0084B1B68084A07
:100EAC00A2FB03235B0A00FB03F3019300BF019B2E
:100EBC005A1E0192002BF9D102B070471800002085
:100ECC00D34D6210002800F0F18170B582B0044659
:100EDC00036813F0010F2CD0994B5B6803F00C03E3
:100EEC00042B1DD0964B5B6803F00C03082B12D01F
:100EFC006368B3F5803F41D0002B55D103F180439B
:100F0C0003F504331A6822F480321A601A6822F44A
:100F1C0080221A6037E08A4B5B6813F4803FE7D07D
:100F2C00874B1B6813F4003F03D06368002B00F061
:100F3C00BF81236813F0020F75D0814B5B6813F0EF
:100F4C000C0F5FD07E4B5B6803F00C03082B54D066
:100F5C002369002B00F08A807A4B01221A60FFF77C
:100F6C0081FF0546764B1B6813F0020F75D1FFF716
:100F7C0079FF401B0228F5D903209EE1704A1368C3
:100F8C0043F480331360636843B3FFF76BFF05468C
:100F9C006B4B1B6813F4003FCBD1FFF763FF401B77
:100FAC006428F5D9032088E1B3F5A02F09D0644B50
:100FBC001A6822F480321A601A6822F480221A60AD
:100FCC00E1E703F18043A3F53C331A6842F4802235
:100FDC001A601A6842F480321A60D4E7FFF742FFB5
:100FEC000546574B1B6813F4003FA2D0FFF73AFF9E
:100FFC00401B6428F5D903205FE1514B5B6813F467
:10100C00803FA5D14E4B1B6813F0020F03D0236910
:10101C00012B40F04F814A4A136823F0F8036169B1
:10102C0043EAC1031360236813F0080F33D0A3699C
:10103C00002B5CD0434B0122C3F88024FFF712FF36
:10104C0005463F4B5B6A13F0020F21D1FFF70AFFF5
:10105C00401B0228F5D903202FE1394A136823F0ED
:10106C00F803616943EAC1031360DCE7354B0022E6
:10107C001A60FFF7F7FE0546314B1B6813F0020FA1
:10108C00D1D0FFF7EFFE401B0228F5D9032014E165
:10109C000120FFF701FF236813F0040F00F0968086
:1010AC00274BDB6913F0805F34D1254BDA6942F0B2
:1010BC008052DA61DB6903F080530193019B0125B7
:1010CC00214B1B6813F4807F26D0E368012B3DD0A5
:1010DC00002B53D103F1804303F504331A6A22F039
:1010EC0001021A621A6A22F004021A6233E0154BEA
:1010FC000022C3F88024FFF7B5FE0546104B5B6A4F
:10110C0013F0020FC7D0FFF7ADFE401B0228F5D934
:10111C000320D2E00025D3E70B4A136843F4807315
:10112C001360FFF79FFE0646074B1B6813F4807F86
:10113C00CBD1FFF797FE801B6428F5D90320BCE0C8
:10114C000010024000004242007000405F4A136AE7
:10115C0043F001031362E36833B3FFF783FE0646E3
:10116C005A4B1B6A13F0020F2FD1FFF77BFE801B2B
:10117C0041F288339842F3D903209EE0052B09D025
:10118C00524B1A6A22F001021A621A6A22F0040205
:10119C001A62E0E74D4B1A6A42F004021A621A6AAC
:1011AC0042F001021A62D6E7FFF75CFE0646474B97
:1011BC001B6A13F0020F08D0FFF754FE801B41F29C
:1011CC0088339842F3D9032077E0E5B9E369002B23
:1011DC0072D03E4A526802F00C02082A56D0022BFA
:1011EC0017D03B4B00221A66FFF73CFE0446374BE8
:1011FC001B6813F0007F47D0FFF734FE001B02285A
:10120C00F5D9032059E0314AD36923F08053D361D7
:10121C00DCE72F4B00221A66FFF724FE05462B4B0A
:10122C001B6813F0007F06D0FFF71CFE401B022842
:10123C00F5D9032041E0236AB3F5803F1AD0234946
:10124C004B6823F47413226A606A024313434B60A5
:10125C001F4B01221A66FFF705FE04461B4B1B6849
:10126C0013F0007F0ED1FFF7FDFD001B0228F5D90E
:10127C00032022E0154A536823F40033A1680B4382
:10128C005360DCE7002018E0002016E0012B16D09C
:10129C000E4B5B6803F48031226A914211D103F446
:1012AC007013626A93420ED1002006E00120704751
:1012BC00012002E0012000E0002002B070BD0120FE
:1012CC00FBE70120F9E70120F7E700BF001002401F
:1012DC000000424286B0174B0FCB0DF1180C0CE9F5
:1012EC000F0040F20123ADF80430134B5B6803F0A0
:1012FC000C02082A02D0114806B07047C3F383428F
:10130C0018326A4412F8100C13F4803F0DD00A4BBB
:10131C005B68C3F3404318336B4413F8143C074A1F
:10132C0002FB00F0B0FBF3F0E6E7054B03FB00F02B
:10133C00E2E700BF901F00080010024000127A0084
:10134C0000093D00002800F0A08070B50D46044651
:10135C00524B1B6803F007038B420BD24F4A1368A6
:10136C0023F007030B431360136803F007038B424E
:10137C0040F08D80236813F0020F17D013F0040F88
:10138C0004D0474A536843F4E0635360236813F076
:10139C00080F04D0424A536843F460535360404AE8
:1013AC00536823F0F003A1680B435360236813F0D8
:1013BC00010F31D06368012B20D0022B25D0384A85
:1013CC00126812F0020F64D035494A6822F0030209
:1013DC0013434B60FFF746FD0646314B5B6803F049
:1013EC000C036268B3EB820F16D0FFF73BFD801B3A
:1013FC0041F288339842F0D9032045E0284A12681C
:10140C0012F4003FE0D101203EE0254A126812F0B0
:10141C00007FD9D1012037E0204B1B6803F0070374
:10142C00AB420AD91D4A136823F007032B43136000
:10143C00136803F00703AB422DD1236813F0040F9C
:10144C0006D0174A536823F4E063E1680B435360FA
:10145C00236813F0080F07D0114A536823F4605324
:10146C00216943EAC1035360FFF734FF0C4B5B68FF
:10147C00C3F303130B4AD35CD8400B4B18600B4BD4
:10148C001868FFF7ABFC002070BD012070470120ED
:10149C00FAE70120F8E70120F6E700BF0020024040
:1014AC0000100240A41F00081800002014000020A7
:1014BC00014B1868704700BF1800002008B5FFF7F3
:1014CC00F7FF044B5B68C3F30223034AD35CD84099
:1014DC0008BD00BF00100240B41F000808B5FFF79C
:1014EC00E7FF044B5B68C3F3C223034AD35CD840C9
:1014FC0008BD00BF00100240B41F000870B582B0D8
:10150C000024A446A6E0804DAB4210D007D97F4DF5
:10151C00AB420CD005F58035AB4208D013E0A5F5F5
:10152C008015AB4203D005F57025AB4207D18B6813
:10153C00002B58D0012B51D04261082403E0A5F5B3
:10154C008015AB42F3D0BEF1FF0F4ED80646BEF16C
:10155C00FF0F4CD84FEA8C0233680F25954023EAD5
:10156C00050304FA02F2134333604B6813F0805FF7
:10157C006ED0674B9A6942F001029A619B6903F045
:10158C0001030193019B4FEA9C02951C614B53F89C
:10159C0025600CF00305AD000F23AB4026EA0306D3
:1015AC005D4B984229D003F58063984200F08E8001
:1015BC0003F58063984200F08B8003F580639842BA
:1015CC0019D004231AE0CC68BDE7CC680434BAE720
:1015DC00CC680834B7E7CC680C34B4E70261082453
:1015EC00B1E70024AFE70424ADE7061DAFE7ACF18B
:1015FC0008029200B0E7032300E00023AB40334322
:10160C000232444D45F822304B6813F4803F61D0D0
:10161C00424A136843EA0E0313604B6813F4003F0D
:10162C005ED03E4A536843EA0E0353604B6813F492
:10163C00801F5BD0394A936843EA0E0393604B6872
:10164C0013F4001F58D0354AD36843EA0E03D36015
:10165C000CF1010C0B6833FA0CF253D0012202FA94
:10166C000CF203EA020E32EA0303F1D14B68122B9F
:10167C003FF649AF122B3FF666AF01A555F823F0A4
:10168C003B150008D3150008DD150008EF15000800
:10169C00531500085315000853150008531500087E
:1016AC00531500085315000853150008531500086E
:1016BC00531500085315000853150008531500085E
:1016CC0053150008D7150008E3150008012395E70A
:1016DC00022393E7114A136823EA0E0313609CE775
:1016EC000E4A536823EA0E0353609FE70B4A936834
:1016FC0023EA0E039360A2E7084AD36823EA0E0399
:10170C00D360A5E702B070BD0000221000003110BC
:10171C00001002400000014000080140000401409C
:10172C000AB101617047090401617047034690F8E2
:10173C002120022A06D004228263002280F8202075
:10174C000120704701680A6822F00E020A600168E5
:10175C000A6822F001020A60026CC06B012101FAD6
:10176C0002F2426083F82110002083F820007047B9
:10177C0008B590F82130022B03D004238363012099
:10178C0008BD0268136823F00E0313600268136827
:10179C0023F0010313600368194A934214D01432E6
:1017AC0093421FD0143293421ED0143293421ED057
:1017BC00143293421ED01432934202D04FF08072F6
:1017CC0003E04FF4801200E001220E4B5A6001231B
:1017DC0080F82130002380F82030436B6BB19847A0
:1017EC000020CDE71022F0E74FF48072EDE74FF4C4
:1017FC008052EAE74FF48032E7E70020C0E700BFF1
:10180C000800024000000240074AD36823F4E0635A
:10181C001B041B0C000200F4E060034343F0BF63A5
:10182C0043F40033D360704700ED00E000B5194B72
:10183C00DB68C3F30223C3F1070CBCF1040F28BF10
:10184C004FF0040C03F1040EBEF1060F18D9033B44
:10185C004FF0FF3E0EFA0CFC21EA0C0199400EFAF7
:10186C0003FE22EA0E020A4300280BDB1201D2B25D
:10187C0000F1604000F5614080F800235DF804FB46
:10188C000023E5E700F00F001201D2B2024B1A540C
:10189C00F4E700BF00ED00E014ED00E0002807DBEA
:1018AC0000F01F02400901239340024A42F8203005
:1018BC00704700BF00E100E00138B0F1807F0BD22F
:1018CC004FF0E0235861054AF02182F823100020E4
:1018DC00986107221A6170470120704700ED00E003
:1018EC000268D36823F49073D3600268536923F0C1
:1018FC0001035361036B012B05D0202380F83E308C
:10190C000023036370470268D36823F01003D3608D
:10191C00F3E790F83D30DBB2212B01D00220704769
:10192C008368B3F5805F17D0036A5A1C02621A7879
:10193C0003685A60C38C9BB2013B9BB2C3844BB906
:10194C000268D36823F08003D3600268D36843F045
:10195C004003D360002070470369002BE4D1036A75
:10196C001B880268C3F308035360036A02330362E3
:10197C00E0E7000010B504460268136923F44053F5
:10198C00C1680B43136183680269134342691A43AC
:10199C000168CB6823F4B05323F00C031343CB60E2
:1019AC000268536923F4407381690B4353610268E5
:1019BC00134B9A4220D0FFF781FD024602EB8202C4
:1019CC0002EB820263689B00B2FBF3F20D48A0FBB2
:1019DC0002314909642303FB11231B013233A0FBA1
:1019EC0003035B0903F0F00202EB011203F00F0397
:1019FC00216813448B6010BDFFF770FD0246DDE7D4
:101A0C00003801401F85EB512DE9F84305460F4680
:101A1C0016469946DDF820802B681C6837EA0404CA
:101A2C000CBF01240024B4421FD1B8F1FF3FF3D006
:101A3C00B8F1000F05D0FFF715FAA0EB09004045EF
:101A4C00EAD92A68D36823F4D073D3602A6853691F
:101A5C0023F001035361202385F83D3085F83E3097
:101A6C00002385F83C30032000E00020BDE8F8831B
:101A7C0058B310B5044690F83D300BB3242384F8CA
:101A8C003D302268D36823F40053D3602046FFF71F
:101A9C0071FF2268136923F4904313612268536920
:101AAC0023F02A0353612268D36843F40053D360B4
:101ABC0000202064202384F83D3084F83E3010BD93
:101ACC0080F83C30FEF7CCFED8E7012070472DE9BA
:101ADC00F04182B01E4690F83D30DBB2202B54D141
:101AEC0004460D469046002953D0002A53D090F856
:101AFC003C30012B51D0012380F83C30002303648F
:101B0C00212380F83D30FFF7ADF90746A4F8248077
:101B1C00A4F82680A368B3F5805F05D04FF00008C9
:101B2C00002384F83C3012E0236913B14FF0000815
:101B3C00F6E7A8460025F3E738F8023B2268C3F322
:101B4C0008035360E28C92B2013A92B2E284E38CC5
:101B5C009BB273B100963B46002280212046FFF7D2
:101B6C0053FFE0B9002DE7D015F8012B23685A601C
:101B7C00E8E700963B46002240212046FFF744FF51
:101B8C0078B9202384F83D3000E0022002B0BDE893
:101B9C00F0810120FAE70120F8E70220F6E70320A4
:101BAC00F4E70320F2E7704708B50168CA6822F031
:101BBC004002CA60202280F83D20FFF7F4FF00208D
:101BCC0008BD704708B5406A0023C385C384FFF77E
:101BDC00F8FF08BD704790F83E30DBB2222B60D185
:101BEC008368B3F5805F46D0826AB3F5805F04D01A
:101BFC00002B4DD10369002B4AD103685B6813702D
:101C0C00836A01338362C38D9BB2013B9BB2C38554
:101C1C00002B48D100B583B00268D36823F02003B1
:101C2C00D3600268D36823F48073D360026853696D
:101C3C0023F001035361202380F83E30036B012B0A
:101C4C002CD1002303630268D36823F01003D36004
:101C5C0003681A6812F0100F06D0002201921A685D
:101C6C0001925B680193019B818DFFF7B3FF00200C
:101C7C0003B05DF804FB0269002AB5D1826A0368DF
:101C8C005B68C3F308031380836A02338362BAE789
:101C9C0003685B6803F07F031370B1E7FEF782FC07
:101CAC00E5E70220704700207047000030B583B094
:101CBC00044602681368D068516913F00F0505D10A
:101CCC0013F0200F02D010F0200F19D12DB111F00C
:101CDC00010119D110F4907F16D1216B012975D017
:101CEC0013F0800F03D010F0800F40F0D78013F06A
:101CFC00400F03D010F0400F40F0D48003B030BD43
:101D0C002046FFF768FFF9E713F0010F06D010F437
:101D1C00807F03D0226C42F00102226413F0040F86
:101D2C0004D019B1226C42F00202226413F0020FAB
:101D3C0004D019B1226C42F00402226413F0080F93
:101D4C0007D010F0200F00D119B1226C42F008021C
:101D5C002264226C002AD1D013F0200F02D010F094
:101D6C00200F21D123685B6903F04003226C12F031
:101D7C00080F00D123B32046FFF7B2FD23685A6940
:101D8C0012F0400F18D05A6922F040025A61A36B2E
:101D9C0073B1464A5A63A06BFFF7EAFC0028ADD03A
:101DAC00A06B436B9847A9E72046FFF714FFD9E7D0
:101DBC002046FFF706FFA1E72046FFF702FF9DE74D
:101DCC002046FFF7FEFE0023236497E713F0100F65
:101DDC0086D010F0100F83D0002301931368019369
:101DEC0053680193019B536913F0400F32D0A16BE0
:101DFC000B685B689BB2002B80D0A08D98427FF65D
:101E0C007DAFE3858B69202B08D1A18DE38D9BB22F
:101E1C00C91A89B22046FFF7DDFE6FE7D36823F4B9
:101E2C008073D3602268536923F0010353612268E5
:101E3C00536923F040035361202384F83E30002380
:101E4C0023632268D36823F01003D360A06BFFF7E1
:101E5C006DFCDAE7A38DE18D89B25B1A99B2E38D43
:101E6C009BB2002B3FF44AAF00293FF447AFD36835
:101E7C0023F49073D3602268536923F001035361F8
:101E8C00202384F83E30002323632268D36823F098
:101E9C001003D3602046FFF79DFE2FE72046FFF787
:101EAC0038FD2BE72046FFF77FFE27E7D11B000804
:101EBC00034681628285C28500201864222283F841
:101ECC003E2083F83C001968CA6842F48072CA60EC
:101EDC0019684A6942F001024A611A68D36843F0F2
:101EEC002003D360704708B590F83E30DBB2202B4E
:101EFC000DD171B17AB190F83C30012B0DD001238A
:101F0C0080F83C3000230363FFF7D2FF00E002208F
:101F1C0008BD0120FCE70120FAE70220F8E7704732
:101F2C000C480D490D4A002302E0D458C450043328
:101F3C00C4188C42F9D30A4A0A4C002301E01360FE
:101F4C000432A242FBD3FFF7EAFFFEF71DF9FEF7BE
:101F5C0071FB7047000000201C000020C41F00080B
:101F6C001C0000207C010020FEE70000F8B500BF3B
:101F7C00F8BC08BC9E467047F8B500BFF8BC08BC5E
:041F8C009E467047B6
:101F900002030405060708090A0B0C0D0E0F1010AA
:101FA0000000000000000000000000000102030427
:0C1FB000060708090000000001020304FD
:041FBC0075010008A3
:041FC0004D010008C7
:101FC4003F065B4F666D7D077F6F5F7C585E7B715C
:0C1FD40040010000100000000024F40098
:0400000508001F2DA3
:00000001FF
